S01700004763634170706C69636174696F6E312E737265635B
S11300000C942A000C9443000C9434000C94340097
S11300100C9434000C9434000C9434000C9434008C
S11300200C9434000C9434000C9434000C9434007C
S11300300C9434000C9434000C9434000C9434006C
S11300400C9434000C9434000C9434000C9434005C
S11300500C94340011241FBECFE5D8E0DEBFCDBF21
S11300600E9470000C9485000C9400001BB888E179
S11300708AB986E880BD10BC89E189B908955D9B81
S1130080FECF8CB908951F920F920FB60F921124D0
S11300902F933F934F935F936F937F938F939F938C
S11300A0AF93BF93EF93FF93F89481E60E943F00D0
S11300B087EA91E60197F1F700C000007894FF9178
S11300C0EF91BF91AF919F918F917F916F915F91CC
S11300D04F913F912F910F900FBE0F901F90189545
S11300E00E9436002FE38DE093E021508040904041
S11300F0E1F700C0000080E48BBF85B7816085BF55
S111010085B7826085BF7894FFCFF894FFCF57
S9030000FC
