:100000000C942A000C943F000C943F000C943F0089
:100010000C943F000C943F000C943F000C943F0064
:100020000C943F000C943F000C943F000C943F0054
:100030000C943F000C943F000C943F000C943F0044
:100040000C943F000C943F000C943F000C943F0034
:100050000C943F0011241FBECFE5D8E0DEBFCDBF1A
:1000600010E0A0E6B0E0EAEEF0E002C005900D92EC
:10007000A836B107D9F70E9441000C9473000C9484
:100080000000CF93DF93CDB7DEB728970FB6F89473
:10009000DEBF0FBECDBF8FEF8ABB87BB98E0E0E627
:1000A000F0E0DE01119601900D929A95E1F788BB80
:1000B00080E090E0E1E0F0E0EC0FFD1FE80FF91FB9
:1000C000208120952BBB019687709078992324F48A
:1000D0000197886F9F6F0196E3EDF0E33197F1F799
:0A00E00000C00000E7CFF894FFCF46
:0800EA0001020408102040800F
:00000001FF
