S01700004763634170706C69636174696F6E312E737265635B
S11300000C947E000C949B000C949B000C949B001D
S11300100C949B000C949B000C949B000C949B00F0
S11300200C949B000C949B000C949B000C949B00E0
S11300300C949B000C949B000C949B000C949B00D0
S11300400C949B000C949B000C949B000C949B00C0
S11300500C949B00DB01E101F801F801F801F801BF
S1130060F801F801F801F801F801F801F801F801C4
S1130070F801F801F801F801F801F301F801F801B9
S1130080F801F801F801F801F801F801F801F801A4
S1130090F801ED01F8013F0145014B015101570100
S11300A05D01630169016F0175017B0181018701B4
S11300B08D01930199019F01A501AB01B101B70124
S11300C0BD01C301C901CF01D501F801F801F8014F
S11300D0F801F801F801F801F801F801F801F80154
S11300E0F801F801F801F801F801F801F801F80144
S11300F0F801F801F801F801F801E70111241FBE25
S1130100CFE5D8E0DEBFCDBF11E0A0E6B0E0EAE481
S1130110F7E002C005900D92AC36B107D9F721E0A3
S1130120ACE6B1E001C01D92A637B207E1F70E9428
S113013023020C94A3030C940000CF93DF93DC01FF
S1130140C0916C01D0916D01C60FD71F8C91E0E76F
S1130150F1E0908189278883C0916C01D0916D0171
S11301602196C60FD71F11968C91119790818927DC
S11301708883C0916C01D0916D012296C60FD71F60
S113018012968C911297908189278883C0916C0173
S1130190D0916D012396C60FD71F13968C91139798
S11301A0908189278883C0916C01D0916D01249638
S11301B0C60FD71F14968C91149790818927888332
S11301C0C0916C01D0916D012596C60FD71F15966D
S11301D08C911597908189278883C0916C01D09167
S11301E06D012696C60FD71F16968C91169790818F
S11301F08927888380916C0190916D010796EB01AA
S1130200C80FD91F17968C91908189278883809174
S11302106C0190916D01089690936D0180936C012F
S1130220DF91CF9108950F931F93CF93DF93EC0148
S113023010926D0110926C01FC0101900020E9F70D
S11302403197CF018C1B9D0B0196880F991F880F46
S1130250991F880F991F90936F0180936E010E94DC
S113026082028C01C6C08E2F90E0FC01B097E43569
S1130270F10508F0BDC0E65DFF4F0C947C02B801A7
S113028086E591E00E949D00B3C0B8018EE491E040
S11302900E949D00ADC0B80186E491E00E949D00DB
S11302A0A7C0B8018EE391E00E949D00A1C0B801EF
S11302B086E391E00E949D009BC0B8018EE291E02C
S11302C00E949D0095C0B80186E291E00E949D00C5
S11302D08FC0B8018EE191E00E949D0089C0B801F1
S11302E086E191E00E949D0083C0B8018EE091E018
S11302F00E949D007DC0B80186E091E00E949D00AF
S113030077C0B8018EEF90E00E949D0071C0B801E3
S113031086EF90E00E949D006BC0B8018EEE90E0E5
S11303200E949D0065C0B80186EE90E00E949D0089
S11303305FC0B8018EED90E00E949D0059C0B801E5
S113034086ED90E00E949D0053C0B8018EEC90E0D1
S11303500E949D004DC0B80186EC90E00E949D0073
S113036047C0B8018EEB90E00E949D0041C0B801E7
S113037086EB90E00E949D003BC0B8018EEA90E0BD
S11303800E949D0035C0B80186EA90E00E949D005D
S11303902FC0B8018EE990E00E949D0029C0B801E9
S11303A086E990E00E949D0023C0B8018EE890E0A9
S11303B00E949D001DC0B80186E890E00E949D0047
S11303C017C0B8018EE790E00E949D0011C0B801EB
S11303D086E790E00E949D000BC0B8018EE690E095
S11303E00E949D0005C0B80186E690E00E949D0031
S11303F02196E881E11137CFB80186E890E00E94A8
S11304009D00C801DF91CF911F910F9108958091B4
S11304106E0190916F010895DC018C9120E030E031
S113042007C0FD01E20FF31F918190832F5F3F4FBF
S1130430AB0141505109241735079CF3FD01E40F2A
S1130440F51F80830895CF93DF93CDB7DEB7289748
S11304500FB6F894DEBF0FBECDBF8FEF8ABB87BB4C
S113046011BA8FEF90E0909371018093700186E64A
S113047091E00E9413016C0188E0EEE5F1E0DE01F9
S1130480119601900D928A95E1F70E9407027C0172
S113049020E030E000E010E0283B8BE0380759F41E
S11304A0809B07C0B701C6010E940C0220E030E027
S11304B002C020E030E0E1E0F0E0EC0FFD1FE00FCF
S11304C0F11F90818091700189278BBBF601E00FA9
S11304D0F11F808188BBC8010196877090789923A9
S11304E024F40197886F9F6F01968C012F5F3F4F13
S11304F08AE08A95F1F7D0CFEE0FFF1F0590F491B3
S1130500E02D09940F931F93CF93DF9382309105CD
S113051010F482E090E0E0917401F091750120E024
S113052030E0A0E0B0E0309719F1408151810281C0
S1130530138148175907C8F08417950769F4109771
S113054031F012960C93129713961C9327C00093C4
S113055074011093750122C02115310519F0421759
S1130560530718F49A01BD01EF01DF01F801DBCF55
S113057021153105F9F0281B390B2430310580F49D
S11305808A819B816115710521F0FB01938382832C
S113059004C09093750180937401FE01329644C0A7
S11305A0FE01E20FF31F81939193225031093983A5
S11305B028833AC02091720130917301232B41F4B6
S11305C02091620030916300309373012093720193
S11305D020916000309161002115310541F42DB75F
S11305E03EB74091640050916500241B350BE091A7
S11305F07201F0917301E217F307A0F42E1B3F0B75
S11306002817390778F0AC014E5F5F4F2417350780
S113061048F04E0F5F1F5093730140937201819312
S1130620919302C0E0E0F0E0CF01DF91CF911F9100
S11306300F910895CF93DF93009709F481C0FC01D3
S1130640329713821282A0917401B09175011097B0
S113065081F420813181820F931F209172013091A6
S113066073012817390751F5F0937301E093720170
S113067067C0ED0120E030E0CE17DF0740F44A8187
S11306805B819E0141155105F1F0EA01F5CFD38359
S1130690C28340815181840F951FC817D90759F42B
S11306A088819981840F951F0296918380838A8122
S11306B09B81938382832115310529F4F09375017D
S11306C0E09374013DC0E901FB83EA8349915991A8
S11306D0C40FD51FEC17FD0761F480819181840F4D
S11306E0951F0296E90199838883828193819B8374
S11306F08A83E0E0F0E012968D919C911397009725
S113070019F0FD01DC01F7CF8D919C9111979D01AA
S11307102E5F3F4F820F931F20917201309173011E
S11307202817390769F4309729F41092750110924B
S1130730740102C013821282B0937301A0937201F8
S10D0740DF91CF910895F894FFCFE4
S113074A000076012000FFFF66666600FFFFFFFFD8
S113075A46F6F6F0FFFFDFB9797F7F79B9DFFFFF4D
S113076AFF2020FFFFFFFFFFFFFFFFFFFFFFFF3E0A
S113077A5E6E767A7CFFFF7C7B07077B7CFFFFBD7E
S113078ADBE7E7DBBDFFFF00BFDFDFBF00FFFFC022
S113079ABF7F7FBFC0FFFFFF007F7F00FFFFFFFE19
S11307AAFE0000FEFEFFFFFF78766E1EFFFFFFFFCE
S11307BA00CEAE60FFFFFFC3BDAD9D837FFFFFFF89
S11307CA00F6F6F0FFFFFFFF817E7E81FFFFFF0048
S11307DAF9F3E7CF00FFFF00FDFBFBFD00FFFFFF7E
S11307EA007F7F7FFFFFFFFF00C3BD7EFFFFFFFF88
S11307FABE7E7E00FFFFFFFF7E00007EFFFFFFFF3D
S113080A00E7E700FFFFFFFF007E6E0EFFFFFFFF1A
S113081A00F6F6F6FFFFFFFF00666666FFFFFFFFBE
S113082A007EBDC3FFFFFFFF817E7E7EFFFFFFFFC9
S113083A00666618FFFFFFFF01F6F601FFFF0102DB
S10F084A040810204080435345200000A7
S903016C8F
